{
  "$schema": "../../../specs/erc7730-tests-v2.schema.json",
  "descriptor": "../calldata-feralfile-exhibition-v4_2-0.json",
  "dataProvider": {
    "addressNames": {
      "0x0000000000000000000000000000000000000001": "Sender",
      "0x0000000000000000000000000000000000000003": "Receiver",
      "0x0000000000000000000000000000000000000002": "Test Operator",
      "0x455464f0d369dac13002e81e9fab857f6ad21795": "0x455464F0d369dAC13002e81e9fAB857f6aD21795",
      "0xcbfaf4bde69c9b37835761e5228f9fe9e25b452f": "0xcBFaf4BDE69C9b37835761E5228f9fe9E25b452f"
    },
    "nftCollectionNames": {
      "0xbe0a4e26a156b2a60cf515e86b3df9756dee1952": "Feral File Exhibition V4.2"
    }
  },
  "tests": [
    {
      "description": "Transfer artwork - transferFrom",
      "rawTx": "0x02f88e0180843b9aca008504a817c80083030d4094be0a4e26a156b2a60cf515e86b3df9756dee195280b86423b872dd0000000000000000000000000000000000000000000000000000000000000001000000000000000000000000000000000000000000000000000000000000000300000000000000000000000000000000000000000000000000000000000003e9c0",
      "expected": {
        "intent": "Transfer artwork",
        "owner": "Feral File",
        "fields": [
          {
            "label": "From",
            "value": "Sender"
          },
          {
            "label": "To",
            "value": "Receiver"
          },
          {
            "label": "Artwork",
            "value": "Feral File Exhibition V4.2 #1001"
          }
        ],
        "interpolatedIntent": "Transfer token Feral File Exhibition V4.2 #1001 from Sender to Receiver"
      }
    },
    {
      "description": "Transfer artwork - safeTransferFrom",
      "rawTx": "0x02f88e0180843b9aca008504a817c80083030d4094be0a4e26a156b2a60cf515e86b3df9756dee195280b86442842e0e0000000000000000000000000000000000000000000000000000000000000001000000000000000000000000000000000000000000000000000000000000000300000000000000000000000000000000000000000000000000000000000003e9c0",
      "expected": {
        "intent": "Transfer artwork",
        "owner": "Feral File",
        "fields": [
          {
            "label": "From",
            "value": "Sender"
          },
          {
            "label": "To",
            "value": "Receiver"
          },
          {
            "label": "Artwork",
            "value": "Feral File Exhibition V4.2 #1001"
          }
        ],
        "interpolatedIntent": "Safely transfer token Feral File Exhibition V4.2 #1001 to Receiver"
      }
    },
    {
      "description": "Transfer artwork - safeTransferFrom with data",
      "rawTx": "0x02f8ce0180843b9aca008504a817c80083030d4094be0a4e26a156b2a60cf515e86b3df9756dee195280b8a4b88d4fde0000000000000000000000000000000000000000000000000000000000000001000000000000000000000000000000000000000000000000000000000000000300000000000000000000000000000000000000000000000000000000000003e900000000000000000000000000000000000000000000000000000000000000800000000000000000000000000000000000000000000000000000000000000000c0",
      "expected": {
        "intent": "Transfer artwork",
        "owner": "Feral File",
        "fields": [
          {
            "label": "From",
            "value": "Sender"
          },
          {
            "label": "To",
            "value": "Receiver"
          },
          {
            "label": "Artwork",
            "value": "Feral File Exhibition V4.2 #1001"
          }
        ],
        "interpolatedIntent": "Safely transfer token Feral File Exhibition V4.2 #1001 to Receiver"
      }
    },
    {
      "description": "Approve artwork transfer",
      "rawTx": "0x02f86e0180843b9aca008504a817c80083030d4094be0a4e26a156b2a60cf515e86b3df9756dee195280b844095ea7b3000000000000000000000000000000000000000000000000000000000000000200000000000000000000000000000000000000000000000000000000000003e9c0",
      "expected": {
        "intent": "Approve artwork transfer",
        "owner": "Feral File",
        "fields": [
          {
            "label": "Operator",
            "value": "Test Operator"
          },
          {
            "label": "Artwork",
            "value": "Feral File Exhibition V4.2 #1001"
          }
        ],
        "interpolatedIntent": "Allow Test Operator to transfer token Feral File Exhibition V4.2 #1001"
      }
    },
    {
      "description": "Set operator approval - grant all",
      "rawTx": "0x02f86e0180843b9aca008504a817c80083030d4094be0a4e26a156b2a60cf515e86b3df9756dee195280b844a22cb46500000000000000000000000000000000000000000000000000000000000000020000000000000000000000000000000000000000000000000000000000000001c0",
      "expected": {
        "intent": "Set operator approval",
        "owner": "Feral File",
        "fields": [
          {
            "label": "Operator",
            "value": "Test Operator"
          },
          {
            "label": "Approved",
            "value": "true"
          }
        ],
        "interpolatedIntent": "true all tokens for Test Operator"
      }
    },
    {
      "description": "Burn artworks",
      "rawTx": "0x02f88e0180843b9aca008504a817c80083030d4094be0a4e26a156b2a60cf515e86b3df9756dee195280b86421fe0c640000000000000000000000000000000000000000000000000000000000000020000000000000000000000000000000000000000000000000000000000000000100000000000000000000000000000000000000000000000000000000000003e9c0",
      "expected": {
        "intent": "Burn artworks",
        "owner": "Feral File",
        "fields": [
          {
            "label": "Artworks",
            "value": "Feral File Exhibition V4.2 #1001"
          }
        ],
        "interpolatedIntent": "Permanently destroy selected artworks"
      }
    },
    {
      "description": "Purchase artworks in bulk - buyBulkArtworks",
      "rawTx": "0x02f901f70180843b9aca008504a817c80083030d4094be0a4e26a156b2a60cf515e86b3df9756dee19528806f05b59d3b20000b901c44bda5d8900000000000000000000000000000000000000000000000000000000000000000000000000000000000000000000000000000000000000000000000000000000000000000000000000000000000000000000000000000000000000000000001b000000000000000000000000000000000000000000000000000000000000008000000000000000000000000000000000000000000000000006f05b59d3b2000000000000000000000000000000000000000000000000000000b1a2bc2ec5000000000000000000000000000000000000000000000000000000000000677485800000000000000000000000000000000000000000000000000000000000000003000000000000000000000000000000000000000000000000000000000000002a00000000000000000000000000000000000000000000000000000000000000070000000000000000000000000000000000000000000000000000000000000005000000000000000000000000000000000000000000000000000000000000012000000000000000000000000000000000000000000000000000000000000000000000000000000000000000000000000000000000000000000000000000000000c0",
      "expected": {
        "intent": "Purchase artworks in bulk",
        "fields": [
          {
            "label": "Price",
            "value": "0.5 ETH"
          },
          {
            "label": "Platform cost",
            "value": "0.05 ETH"
          },
          {
            "label": "Recipient",
            "value": "Receiver"
          },
          {
            "label": "Series ID",
            "value": "7"
          },
          {
            "label": "Quantity",
            "value": "5"
          },
          {
            "label": "Nonce",
            "value": "42"
          },
          {
            "label": "Offer expires",
            "value": "2025-01-01 00:00:00Z"
          },
          {
            "label": "Pay via vault",
            "value": "false"
          }
        ],
        "owner": "Feral File",
        "interpolatedIntent": "Buy 5 from series 7"
      }
    },
    {
      "description": "Start artwork sale",
      "rawTx": "0x02ed0180843b9aca008504a817c80083030d4094be0a4e26a156b2a60cf515e86b3df9756dee19528084b66a0e5dc0",
      "expected": {
        "intent": "Start artwork sale",
        "owner": "Feral File",
        "fields": []
      }
    },
    {
      "description": "Pause artwork sale",
      "rawTx": "0x02ed0180843b9aca008504a817c80083030d4094be0a4e26a156b2a60cf515e86b3df9756dee1952808455367ba9c0",
      "expected": {
        "intent": "Pause artwork sale",
        "owner": "Feral File",
        "fields": []
      }
    },
    {
      "description": "Resume artwork sale",
      "rawTx": "0x02ed0180843b9aca008504a817c80083030d4094be0a4e26a156b2a60cf515e86b3df9756dee1952808433e364cbc0",
      "expected": {
        "intent": "Resume artwork sale",
        "owner": "Feral File",
        "fields": []
      }
    },
    {
      "description": "Stop sale and burn unsold artworks",
      "rawTx": "0x02ed0180843b9aca008504a817c80083030d4094be0a4e26a156b2a60cf515e86b3df9756dee19528084b9b8311ac0",
      "expected": {
        "intent": "Stop sale and burn unsold artworks",
        "owner": "Feral File",
        "fields": []
      }
    },
    {
      "description": "Stop sale and return unsold artworks",
      "rawTx": "0x02f8ee0180843b9aca008504a817c80083030d4094be0a4e26a156b2a60cf515e86b3df9756dee195280b8c465a46e08000000000000000000000000000000000000000000000000000000000000004000000000000000000000000000000000000000000000000000000000000000800000000000000000000000000000000000000000000000000000000000000001000000000000000000000000000000000000000000000000000000000000000700000000000000000000000000000000000000000000000000000000000000010000000000000000000000000000000000000000000000000000000000000003c0",
      "expected": {
        "intent": "Stop sale and return unsold artworks",
        "fields": [
          {
            "label": "Series IDs",
            "value": "[7]"
          },
          {
            "label": "Recipients",
            "value": "[0x0000000000000000000000000000000000000003]"
          }
        ],
        "owner": "Feral File"
      }
    },
    {
      "description": "Mint artworks",
      "rawTx": "0x02f8ce0180843b9aca008504a817c80083030d4094be0a4e26a156b2a60cf515e86b3df9756dee195280b8a48cba1c6700000000000000000000000000000000000000000000000000000000000000200000000000000000000000000000000000000000000000000000000000000001000000000000000000000000000000000000000000000000000000000000000700000000000000000000000000000000000000000000000000000000000003e90000000000000000000000000000000000000000000000000000000000000003c0",
      "expected": {
        "intent": "Mint artworks",
        "owner": "Feral File",
        "fields": [
          {
            "label": "Series ID",
            "value": "7"
          },
          {
            "label": "Artwork",
            "value": "Feral File Exhibition V4.2 #1001"
          },
          {
            "label": "Owner",
            "value": "Receiver"
          }
        ]
      }
    },
    {
      "description": "Set vault contract",
      "rawTx": "0x02f84d0180843b9aca008504a817c80083030d4094be0a4e26a156b2a60cf515e86b3df9756dee195280a46817031b000000000000000000000000455464f0d369dac13002e81e9fab857f6ad21795c0",
      "expected": {
        "intent": "Set vault contract",
        "owner": "Feral File",
        "fields": [
          {
            "label": "Vault",
            "value": "0x455464F0d369dAC13002e81e9fAB857f6aD21795"
          }
        ]
      }
    },
    {
      "description": "Set cost receiver",
      "rawTx": "0x02f84d0180843b9aca008504a817c80083030d4094be0a4e26a156b2a60cf515e86b3df9756dee195280a41623528f0000000000000000000000000000000000000000000000000000000000000003c0",
      "expected": {
        "intent": "Set cost receiver",
        "owner": "Feral File",
        "fields": [
          {
            "label": "Cost receiver",
            "value": "Receiver"
          }
        ]
      }
    },
    {
      "description": "Set token base URI",
      "rawTx": "0x02f88e0180843b9aca008504a817c80083030d4094be0a4e26a156b2a60cf515e86b3df9756dee195280b8648ef79e910000000000000000000000000000000000000000000000000000000000000020000000000000000000000000000000000000000000000000000000000000001c68747470733a2f2f666572616c66696c652e636f6d2f746f6b656e2f00000000c0",
      "expected": {
        "intent": "Set token base URI",
        "owner": "Feral File",
        "fields": [
          {
            "label": "Base URI",
            "value": "https://feralfile.com/token/"
          }
        ]
      }
    },
    {
      "description": "Set advance payment settings",
      "rawTx": "0x02f8ee0180843b9aca008504a817c80083030d4094be0a4e26a156b2a60cf515e86b3df9756dee195280b8c43c352b0d00000000000000000000000000000000000000000000000000000000000000400000000000000000000000000000000000000000000000000000000000000080000000000000000000000000000000000000000000000000000000000000000100000000000000000000000000000000000000000000000000000000000000030000000000000000000000000000000000000000000000000000000000000001000000000000000000000000000000000000000000000000016345785d8a0000c0",
      "expected": {
        "intent": "Set advance payment settings",
        "fields": [
          {
            "label": "Addresses",
            "value": "[0x0000000000000000000000000000000000000003]"
          },
          {
            "label": "Advance amounts",
            "value": "[100000000000000000]"
          }
        ],
        "owner": "Feral File"
      }
    },
    {
      "description": "Replace advance payment addresses",
      "rawTx": "0x02f8ee0180843b9aca008504a817c80083030d4094be0a4e26a156b2a60cf515e86b3df9756dee195280b8c441a5626a000000000000000000000000000000000000000000000000000000000000004000000000000000000000000000000000000000000000000000000000000000800000000000000000000000000000000000000000000000000000000000000001000000000000000000000000000000000000000000000000000000000000000100000000000000000000000000000000000000000000000000000000000000010000000000000000000000000000000000000000000000000000000000000003c0",
      "expected": {
        "intent": "Replace advance payment addresses",
        "fields": [
          {
            "label": "Old addresses",
            "value": "[0x0000000000000000000000000000000000000001]"
          },
          {
            "label": "New addresses",
            "value": "[0x0000000000000000000000000000000000000003]"
          }
        ],
        "owner": "Feral File"
      }
    },
    {
      "description": "Set vault V2 contract",
      "rawTx": "0x02f84d0180843b9aca008504a817c80083030d4094be0a4e26a156b2a60cf515e86b3df9756dee195280a4a74cebab000000000000000000000000cbfaf4bde69c9b37835761e5228f9fe9e25b452fc0",
      "expected": {
        "intent": "Set vault V2 contract",
        "fields": [
          {
            "label": "Vault V2",
            "value": "0xcBFaf4BDE69C9b37835761E5228f9fe9E25b452f"
          }
        ],
        "owner": "Feral File"
      }
    }
  ]
}
